:020000040800F2
:10000000E8760020CD020008D15400084D540008C5
:10001000CD540008591C0008297300080000000096
:10002000000000000000000000000000D95400089B
:10003000811C000800000000D5540008DD540008B1
:10004000E7020008E7020008E7020008E7020008EC
:10005000E7020008E7020008E7020008E7020008DC
:10006000E7020008E7020008E70200085D1C00083C
:10007000691C0008751C0008E7020008E702000878
:10008000E702000800000000E7020008E70200089D
:10009000E7020008E7020008E7020008E70200089C
:1000A000E7020008E7020008E7020008E70200088C
:1000B0005D550008E7020008E7020008E7020008B3
:1000C000E7020008E7020008E7020008E70200086C
:1000D000E7020008E70200081D730008E7020008B5
:1000E0000D250008E7020008E7020008E702000803
:1000F000E7020008E7020008E7020008000000002D
:1001000000000000E702000800000000E70200080D
:10011000E702000800000000E7020008E70200080C
:10012000E7020008E7020008E7020008E70200080B
:10013000E70200080000000000000000E7020008DD
:10014000E7020008E70200080000000000000000CD
:10015000000000000000000000000000000000009F
:10016000000000000000000000000000E70200089E
:10017000E70200080000000000000000000000008E
:1001800000000000E702000800000000000000007E
:10019000000000000000000000000000000000005F
:1001A0000000000000000000E7020008E70200086D
:1001B000E7020008E7020008E7020008000000006C
:1001C00000000000E702000800000000000000003E
:1001D000E7020008E702000800F002F800F066F805
:1001E00014A696E8000CB244B344DA4501D100F0FD
:1001F0005DF8BAE80F000FA696E83000A5EB0405FD
:1002000004EB0607AAEB0704A7F101074FEA15154F
:100210004FEA3414A4F10104AC4201D300F046F8D3
:1002200013F0010F18BFFB1A43F0010300F001F8AF
:10023000DBE718477877000098770000103A24BF72
:1002400078C878C1FAD8520724BF30C830C144BF3B
:1002500004680C6070470000704700000023002411
:1002600000250026103A28BF78C1FBD8520728BFC6
:1002700030C148BF0B607047642900F011817529B7
:1002800000F00E81732900F07983002070471FB5BC
:1002900007F0E8FA00F0DEFA04000020002107F081
:1002A000CBFA401C60601FBD10B510BD00F0C0FC53
:1002B0001146FFF7ECFF07F039F800F0DEFC03B45D
:1002C000FFF7F2FF03BC00F0E1FC000009488047A3
:1002D00009480047FEE7FEE7FEE7FEE7FEE7FEE728
:1002E000FEE7FEE7FEE7FEE704480549054A064B40
:1002F0007047000049550008D9010008E870002047
:10030000E8760020E8720020E872002010B500F0C6
:10031000A1FA001D10BD00BF2175000053EA020CB8
:1003200000F069802DE9F04B4FF00006002B1FBF55
:10033000B3FA83F503FA05F424FA05F65E4012BF1A
:100340001643B2FA82F502FA05F4C5F120051EBF84
:1003500022FA05FC44EA0C04203556EA044C4FEA24
:10036000144418BF641C4FF000084FF0000990427D
:1003700071EB030C39D3002919BFB1FA81F701FAE7
:1003800007F6B0FA80F700FA07F6C7F120071EBF9C
:1003900020FA07FC46EA0C062037B6FBF4FCA7EB74
:1003A0000507103F07F01F0BCBF120062CFA06F6CD
:1003B0000CFA0BFB44BFB3460026202FA4BF5E46B9
:1003C0004FF0000B5BEA060C08BF4FF0010B19EB76
:1003D0000B0948EB0608ABFB027C06FB02CC0BFBCF
:1003E00003CCC01B71EB0C01C1E70B460246414632
:1003F0004846BDE8F08B13B5084318BF4FF0FF30F7
:100400000146AFF30080BDE81C4070470FB41CB537
:100410000C0007AA009007D04142A14202D3204419
:10042000401E01E04FF0FF30074B7B4469460190CE
:10043000069800F076FA0020002C01D00099087090
:100440001CBC5DF814FB00001B05000070B50C46D9
:100450000546012A05D02878800600D5EA690023E0
:1004600002E0012305E05B1C934202D2E05C00281D
:10047000F9D1A869E618C01AA861286A1844286248
:100480002846AFF3008004E0D5E9012114F8010B00
:100490009047B442F8D32846AFF3008070BD000007
:1004A0002DE9F0410646002410687529314616A54D
:1004B00010D0AFF30080002802DA404213A507E015
:1004C00031688A0701D512A502E0490704D511A5B4
:1004D000012401E0AFF3008000210A2206F1240785
:1004E00009E0B0FBF2FCB0FBF2F302FB1C00303081
:1004F00078541846491C0028F3D123462A46304632
:10050000BDE8F04100F0AEB9000000002D00000091
:100510002B000000200000002DE9F0410F460546A9
:10052000002028622846E968884770B3252805D04E
:10053000D5E901219047286A401CF2E7E96828467E
:10054000002688476C2804460AD0682C08D04C2C1A
:1005500035D06A2C31D0742C31D07A2C2FD016E0C3
:10056000E968064628468847B042044608D16C2E02
:1005700023D04FF480662846E9688847044606E0A1
:100580006C2E03D04FF4807601E01EE04026E4B1EB
:10059000A4F14100192802D8203446F400663A46F6
:1005A000214628462E60FFF767FE60B1012808D07B
:1005B000FF1D27F007070837B4E78026DBE7002692
:1005C000D9E73F1DAEE72046B2E7286ABDE8F081D3
:1005D0002DE9F04791460F4680460446002614F860
:1005E000015B2DB1FFF792FE0068405DC007F6D1B8
:1005F0002B2D02D02D2D18D0641E4A463946204698
:1006000000F0C0F927B13968A14201D1C7F80080D4
:100610004FF0020471050BD54042002803DD00F0C5
:100620001DF90460A007BDE8F08746F48066E4E7A2
:100630000028F8DA00F012F904606FF00040F2E7E9
:100640002DE9F05F93460F4680460446002600F0F1
:1006500005F9D0F80090824614F8015B2DB1FFF740
:1006600055FE0068405DC007F6D12B2D02D02D2D20
:100670001AD0641E0021CAF800105A463946204696
:1006800000F080F9014627B13868A04201D1C7F8CF
:100690000080DAF80000022809D0CAF8009070053E
:1006A00005D54842BDE8F09F46F48066E2E708467B
:1006B000F8E70000014A00F0B5B900000000002092
:1006C00010B5431C02E010F8011B71B18107FAD18B
:1006D0004FF0013202C88C1A8C4314EAC211F9D0CF
:1006E000C01A0A0603D0C01E10BDC01A10BD0A04ED
:1006F00001D0801E10BD0902FCD0401E10BD431A5F
:1007000028BF9A4240F2B08110441144032A40F2BB
:10071000268010F0030F1EBF11F8013D521E00F895
:10072000013D10F0030F7FF4F6AF11F0030300F06A
:10073000F381083AC0F00B8051F8043D083A51F8B3
:1007400004CD40F8043D40F804CDFFF7F3BF121D7F
:100750005CBF51F8043D40F8043DAFF30080D20780
:1007600024BF11F8013D11F801CD48BF11F8012C4B
:1007700024BF00F8013D00F801CD48BF00F8012C6E
:1007800070474FF0000200B5134694469646203954
:1007900022BFA0E80C50A0E80C50B1F12001BFF43A
:1007A000F7AF090728BFA0E80C5048BF0CC05DF8A0
:1007B00004EB890028BF40F8042B08BF704748BFEE
:1007C00020F8022B11F0804F18BF00F8012B704762
:1007D00030B44FF0013C50F8042B51F8043BCCFAF4
:1007E00052F4D51A20D1FCB950F8042B51F8043B2F
:1007F000CCFA52F4D51A17D1B4B950F8042B51F8E9
:10080000043BCCFA52F4D51A0ED16CB950F8042B33
:1008100051F8043BCCFA52F4D51A05D1002CDAD0A9
:1008200030BC4FF00000704729BAB1FA81F111F0E5
:100830001801D1F120008440F2D1CA40CB4012F01F
:10084000FF0213F0FF0330BCD01A704770477047A7
:10085000704700000048704758000020004870476B
:10086000380000202DE9F0470D469946924604468F
:1008700000F124080168880604D5E06921F0100120
:10088000216000E00120A84201DD471B00E00027B5
:10089000A1697A1902EB0900081AA0612078C00644
:1008A00002D42046AFF30080002608E0D4E90121FD
:1008B0001AF806009047206A401C761C20624E45BC
:1008C000F4DB2078C0060AD52046AFF3008006E0AE
:1008D000D4E9012130209047206A401C2062381E54
:1008E000A7F10107F4DC07E0D4E9012118F80500BD
:1008F0009047206A401C2062281EA5F10105F3DC08
:100900002046AFF300802078000602D50220BDE823
:10091000F0870120FBE7000001694A1C02610878AA
:10092000704700B58FB0CDE901310021059105492F
:100930007944CDE9031011466846FFF7EDFD0FB08D
:1009400000BD0000E5FFFFFFD1E900239A4202D27B
:10095000531C0B601070704710B5436913B1AFF3AF
:10096000008001E0FFF772FD012010BD127800F158
:1009700024010A7000224A700122EDE711684FF04D
:10098000FF32E9E72DE9F05F824615468B460027E6
:100990000AF10104B9460078302801D09DB113E076
:1009A00014F8010B0127782803D0582801D045B14D
:1009B0000AE00DB1102D07D1002714F8010B102506
:1009C00002E0082500E00A250026B0460EE005FBFF
:1009D000080005FB06F101271FFA80F801EB10461D
:1009E000B6F5803F00D3B94614F8010B294600F054
:1009F000C1F80028EBDABBF1000F05D00FB1641E7F
:100A000000E05446CBF80040B9F1000F06D0FFF7E4
:100A100025FF02210160C81EBDE8F09F48EA06409C
:100A2000FAE700002DE9F04115460E46040002D118
:100A30002C6804B90BA4204600F0BAF804442078CE
:100A400070B127463146384600F0A2F804442078B9
:100A500010B1002004F8010B38462C60BDE8F0818D
:100A60000027F9E700000000032A40F2308010F070
:100A7000030C00F0158011F8013BBCF1020F624439
:100A800098BF11F801CB00F8013B38BF11F8013BCA
:100A9000A2F1040298BF00F801CB38BF00F8013B77
:100AA00011F0030300F09280083AC0F0088051F87A
:100AB000043B083A51F804CBA0E80810F5E7121DF2
:100AC0005CBF51F8043B40F8043BAFF30080D20711
:100AD00024BF11F8013B11F801CB48BF11F8012BDD
:100AE00024BF00F8013B00F801CB48BF00F8012B00
:100AF0007047431A28BF9A4240F26880104411445C
:100B000010F0030F1EBF11F8013D521E00F8013D09
:100B100010F0030F7FF4F6AF103AC0F00A8010B562
:100B200031E9185020E91850103ABFF4F9AFBDE888
:100B30001040530724BF31E9081020E9081044BFD2
:100B400051F8043D40F8043D12F0030F08BF704710
:100B5000D20728BF31F8023D48BF11F8012C28BF49
:100B600020F8023D48BF00F8012C7047004870474C
:100B7000380000203A2800D2303820F02002412AE4
:100B800001D3A2F13700884201D34FF0FF30704704
:100B900030B503461D781DB10A4603E0AC4201D1D1
:100BA000181A30BD12F8014B002CF7D15B1CF1E78D
:100BB00030B503461D783DB10A4612F8014B1CB111
:100BC000AC42FAD15B1CF5E7181A30BD10B5203ADB
:100BD000C0F00B80B1E81850A0E81850B1E81850E8
:100BE000A0E81850203ABFF4F5AF5FEA027C24BFBA
:100BF000B1E81850A0E8185044BF18C918C0BDE8A3
:100C000010405FEA827C24BF51F8043B40F8043B6B
:100C100008BF7047D20728BF31F8023B48BF11F820
:100C2000012B28BF20F8023B48BF00F8012B70477A
:100C30007546FFF79BFFAE4605006946534620F018
:100C40000700854618B020B5FFF74EFBBDE82040F1
:100C50004FF000064FF000074FF000084FF0000B78
:100C6000AC46ACE8C009ACE8C009ACE8C009ACE8E7
:100C7000C00921F007018D46704710B50446AFF357
:100C800000802046BDE81040FFF719BB014918203D
:100C9000ABBEFEE7260002007047000040F21012D3
:100CA000C2F20002C2E900017047000040F21010D9
:100CB000C2F20000C16A0131C1620121C160704706
:100CC0002DE9F04782B040F21016C2F200063168FA
:100CD000884203D002B0BDE8F08700BF41F244482B
:100CE00046F2E40446F2E4450027C2F200080DF1A2
:100CF0000409EA46C2F20004C2F200050DE000BF9A
:100D000044F8201045F8202001300837C0B2B7F56C
:100D1000007FBFF35F8F7061DCD008EB0700B0F895
:100D20000212B0F8002241EA0241B0F80622B0F8FF
:100D30000402091242EA0040001201910090484664
:100D4000514600F05FFDDDE900217069B369A0EB59
:100D5000134303F0FE03FE2BD2D1B36903F58033B6
:100D6000B361336A01333362CAE700002DE9F0470B
:100D700082B040F21016C2F200063168884203D0F9
:100D800002B0BDE8F08700BF41F2444446F2E40AF5
:100D900046F2E4450027C2F200040DF10408E946DA
:100DA000C2F2000AC2F200050CE000BF4AF82010AF
:100DB00045F8202001300137C0B2402FBFF35F8FCC
:100DC0007061DDD004EBC700418834F8372041EA78
:100DD0000241C2888088091242EA00400012019153
:100DE00000904046494600F00DFDDDE900217069A4
:100DF000B369A0EB134303F0FE03FE2BD6D1B36916
:100E000003F58033B361336A01333362CEE7000008
:100E100040F21011C2F200014968884218BF7047C1
:100E2000012006F033BC000040F21011C2F20001B4
:100E30004968884218BF7047002006F027BC0000B0
:100E400040F21010C2F20000C068002818BF012054
:100E500070470000F0B581B040F21017C2F20007F1
:100E6000386858B37D684DB341F24444C2F200047F
:100E700020464FF48061FFF784FC41F64406C2F23D
:100E8000000630464FF48061FFF77BFC002078615C
:100E9000B861F8613862F860284631464FF48072D4
:100EA00001F0FCFF7862386821464FF4807201F04F
:100EB00071FFB862786A08B9B86A38B10120B860C1
:100EC000F8600020386101B0F0BD00BF0020B860BC
:100ED0000120386101B0F0BD40F21010C2F20000F4
:100EE0008068002818BF01207047000010B540F24C
:100EF0009014C2F20004002100282061A180E1804A
:100F000021816181A1812170E18108BF10BD6170E3
:100F1000D0F8801041B146F6E401C2F200014FF46E
:100F2000007203F01BFB98B16078F0B16178206922
:100F300061B390B319A0052106F0F8FA47F6C30093
:100F4000C0F600000121BDE8104006F0EFBA00BF76
:100F5000022060702069D0F880000068016821F0EC
:100F60000401016060780028E0D1206946F6E401C0
:100F7000C2F200014FF4007203F03CFB002804BFF2
:100F800001206070617820690029D2D1A11C012262
:100F900004F06CF920690028CCD110BD52454144C1
:100FA0005900000010B540F29014C2F2000421690B
:100FB000002951D088424FD1084603F02DFC20690A
:100FC00003F066FB6178206902290ED1D0F8801009
:100FD00059B146F6E401C2F200014FF4007203F089
:100FE000BDFAD8B3012060702069617801290BD166
:100FF00046F6E401C2F200014FF4007203F0FAFA7F
:1010000030B1002060702069A11C012204F02EF98B
:10101000206903F0D3FC002020702069E0B1217822
:10102000002918BF10BDA1896289914214D0012303
:101030008A4298BF4FF40072237046F6E463521A56
:10104000C2F20003E281194492B204F069F9002867
:101050001EBF00202070E08110BD00BF2069D0F8C5
:1010600080000068016821F004010160D0E7000001
:1010700040F29011C2F200010A69FAB190421DD10A
:101080004878002818BF70478888CB8801306FF3F4
:101090009F2098420DD080B591F802C0B1F804E0CD
:1010A00046F6E423C2F2000303F80EC08880BDE8D0
:1010B000804002311046012204F0D8B87047000089
:1010C0002DE9F04140F29014C2F20004D4F810E08F
:1010D000BEF1000F67D0704565D16078002808BF69
:1010E000BDE8F081002947D0B1F5007F084646F6FB
:1010F000E40828BF4FF4007000F0030C0429C2F28A
:1011000000085FD20023BCF1000F35D018F80300AF
:10111000A288E58801326FF39F22AA4206D0A588F3
:1011200046F6E426C2F200067055A280BCF1010F1B
:1011300022D003EB08004178A288E38801326FF3E4
:101140009F229A4206D0A38846F6E425C2F2000503
:10115000E954A280BCF1020F0ED08078A188E28809
:1011600001316FF39F21914206D0A28846F6E42315
:10117000C2F200039854A1806078022816D1DEF8EC
:10118000800098B146F6E401C2F2000170464FF4C7
:10119000007203F0E3F92069D0F88000006801686C
:1011A00021F004010160BDE8F08100BF46F6E401D2
:1011B000C2F2000170464FF40072BDE8F04103F046
:1011C00019BA00BF46F6E42200F47F700023C2F291
:1011D000000202E00433984295D018F80350A68824
:1011E000E78801366FF39F26BE4202D0A788D55507
:1011F000A68008EB03056E78A788E18801376FF3B6
:101200009F278F4202D0A1885654A780AE78A1882C
:101210004F1CE1886FF39F278F4202D0A18856545C
:10122000A780ED78A1884E1CE1886FF39F268E423F
:10123000D0D0A1885554A680CCE7000010B540F26C
:101240009014C2F20004216989B388422FD1EFF3D0
:101250001080EFF3108172B6E18921B1A2891144A7
:101260006FF35F21A1810021E181217000B962B695
:101270002069E0B12178002918BF10BDA1896289D9
:10128000914214D001238A4298BF4FF40072237018
:1012900046F6E463521AC2F20003E281194492B2A4
:1012A00004F03EF800281EBF00202070E08110BD31
:1012B0002DE9F04FE5B040F2901BC2F2000BBBF8F5
:1012C0000600BBF80410884202D165B0BDE8F08F7B
:1012D00046F6E42941F64444C2F20009C2F2000491
:1012E0004FF0000A0FF2E83816E000BF3046FFF773
:1012F000E7F981B2304606F019F947F6C300C0F6A7
:101300000000012106F012F9ABF808A0BBF80600B6
:10131000BBF804108842D8D0BBF8060019F80000CA
:10132000BBF806100D2801F101016FF39F21ABF806
:101330000610EBD00A2843D1BBF8080004F800A03F
:101340002046FFF7BDF998B1054603E0013D06F8D8
:1013500001AC0DD0661916F8017C0A2FF6D00D2FBE
:10136000F4D0FEF7D3FF0068C05DC007EED100BF28
:101370002578002DC8D0FEF7C9FF026800210220A1
:10138000535DDB0726D0231813F8016C67182EB3C2
:10139000965DF60726D0265C46B3975DFF072ED0F4
:1013A0005F783FB3D75DFF0728D09D780431002DCB
:1013B00000F10400E4D16518023810BB2DE000BF35
:1013C000BBF808109E299FD84A1CABF8082060542F
:1013D0009CE700BF0238251898B91EE07D1C013833
:1013E00078B91AE00138251858B916E0BD1C40B983
:1013F00013E000BF0130051918B90EE001302518BF
:1014000058B12846FFF75CF9421C20462946FFF7F1
:1014100076F9207800283FF477AF3DA8A021424616
:101420002346FEF7F3FF47F6C0012046C0F6000151
:10143000FFF740F900283FF467AFA6A10546FFF784
:10144000C7F9C8B12846A5A1FFF7C2F900B32846DD
:10145000A4A1FFF7BDF9002864D02846A3A1FFF797
:10146000B7F9002800F084800BAE3046A021A1A27D
:101470002B463DAF23E100BFDBF8100000283FF40E
:1014800043AF47F6D700C0F60000042133E700BFA2
:1014900000F076F90A90002000F07EF9099006200D
:1014A00000F07AF90890012000F076F90546022054
:1014B00000F072F90646032000F06EF98146042020
:1014C00000F06AF98046052000F066F907460998A1
:1014D00001A90090089847F6EB0281E861020BAD84
:1014E0000A9B2846C821C0F60002CDF81480069752
:1014F000FEF78CFFDBF8100068B12846FFF7E0F834
:1015000081B2284606F012F847F6C300C0F6000084
:10151000012106F00BF846F6E429C2F200090FF2A9
:10152000B018F1E647F6C0010020C0F60001FFF751
:10153000C1F8002856D00BA90A22CDF82CA00546E8
:10154000FFF77EF80B99A9424CD0054600F0FAFA55
:101550000BAE47F69C1230463021C0F600022B46F7
:10156000FEF754FFDBF8100000287FF4BFAECBE697
:1015700047F6C006C0F6000600203146FFF79AF88D
:10158000054600203146FFF795F8074695B32846F3
:101590005FA1FFF71DF998B3284661A1FFF718F97D
:1015A00090B3284661A1FFF713F988B3284663A1D9
:1015B000FFF70EF980B3284665A1FFF709F978B364
:1015C000284667A1FFF704F970B347F6C50128461E
:1015D000C0F60001FFF7FCF8002861D14FF00508C4
:1015E00024E000BFDBF8100000283FF48DAE61A0BE
:1015F0000A2180E647F6D500C0F60000054653E014
:101600004FF0000812E000BF4FF006080EE000BFE8
:101610004FF001080AE000BF4FF0020806E000BFEB
:101620004FF0030802E000BF4FF0040847F6D50072
:10163000C0F6000077B338460BA90A22CDF82CA0DB
:10164000FEF7C6FF0B99B94228D006464046314600
:1016500000F08AFA0BAF47F6DC0238466021C0F68C
:1016600000022B460096FEF7D1FEDBF810000028A2
:101670003FF455AF3846FFF723F881B2384605F0FE
:1016800055FF47F6C300C0F60000012105F04EFFEC
:1016900045E700BF0FF2380806E000BF0FF2300840
:1016A00047F6D500C0F600000BAE47F68412002FB7
:1016B00008BF07463046A021C0F600022B4600971F
:1016C000FEF7A4FEDBF8100000287FF40FAE1BE647
:1016D0002573000050494E47000000005354415408
:1016E0005553000046584D41534B0000505345544C
:1016F0000000000045525220554E4B4E4F574E2091
:10170000636D643D2573206C696E653D2573000033
:10171000646973745F64726976655F713800000094
:101720006761696E5F7131350000000064656C614E
:10173000795F6D69785F71313500000064656C61B7
:10174000795F666565646261636B5F713135000066
:101750007265766572625F6D69785F713135000020
:101760007265766572625F666565646261636B5F10
:10177000713135004552522046584D41534B0000BF
:1017800040F24410C2F200008068704740F24410FA
:10179000C2F2000000787047062884BF002070471E
:1017A000DFE800F0040C080A060E100000F000BB91
:1017B00000F0C4BD00F072BA00F0DEBD00F074BAF3
:1017C00000F09EBD40F23000C2F200000068704799
:1017D00080B500F0F3FC00F0FDFA00F077FA00F0BD
:1017E000D1FD40F24410C2F20000002101704160BE
:1017F000816040F23000C2F200004FF4004101600D
:1018000080BD00002DE9F04F8DB08346046840F2A2
:101810004410C2F200000D6880688A4600F001079B
:1018200000F002080A9000F0040607EB580900F0E7
:1018300077FC214600F048FC044600F077FC29467E
:1018400000F042FC054600F05FFC21464FF4FD42EB
:1018500000F0A2FC044600F05DFC29464FF4FD4276
:1018600000F09AFC4FF4C06184FB012380FB01016E
:10187000000A120A40EA016042EA03620B900CA8D7
:101880000BA90C9200F060FB57B90C9809EB960974
:101890003EBBB8F1000F40F088800B9919E100BF02
:1018A00000F08CFA0C9901F3170100F0A1FA0C90EA
:1018B00000F08AFA0B9901F3170100F099FA0B90E6
:1018C00000F016FC0C9900F0FFFA0C9000F016FCEA
:1018D0000B9900F0F9FA0B900C98002E09EB960981
:1018E000D7D000F3170400F0CDF9054600F0E2F977
:1018F00002462046294600F009FA0B99044601F3F6
:10190000170500F0C5F9064600F0DAF90246284648
:10191000314600F0FBF9054600F00EFC214647F683
:10192000045200F039FC044600F00CFC294647F64E
:10193000045200F031FC054600F016FC014620463A
:101940004FF4006200F0ACFC044600F013FC0146CA
:1019500028464FF4006200F0A3FC054600F0A4F90D
:1019600000EB4001CA1701EB9271B9F1010F88BF7A
:1019700088100C9980FB042380FB057601F3170186
:10198000C0F50045C5FB01230B99D00B01F31701EE
:10199000C1FB0576F90B40EA434041EA46410C9011
:1019A0000B91B8F1000F3FF478AFCDF824A000F30D
:1019B000170A00F0B7FCCDF820B0834600F0A6FC73
:1019C000CDF81C90814600F0CBFC054600F074FC7D
:1019D000064600F07DFC074600F086FC804600F0DD
:1019E000B3FC04464FF480300490504659464A46B2
:1019F0002B468DE8C001039400F0F6FC0B9906908D
:101A000001F3170900F094FC824600F085FC834640
:101A100000F0ACFC804600F055FC074600F05EFC90
:101A2000044600F067FC054600F094FC06464FF4BF
:101A30009830049048465146DDF824A05A46DDF817
:101A400020B04346CDE900740295039600F0CCFC2B
:101A5000044600F07DFB069947F6045200F09CFB1B
:101A6000054600F07BFB214647F6045200F094FB4C
:101A7000044600F085FB014628464FF4006200F062
:101A80000FFC054600F082FB014620464FF4006241
:101A900000F006FC044600F06FFC079A00EBD071E2
:101AA000012A88BF48100C9980FB052301F3170118
:101AB000C0F50045C1FB05230B9980FB047601F3BB
:101AC0001701C1FB0576D00BF90B40EA434041EA10
:101AD00046410A9B40F2EE22002B08BF4FF47A7277
:101AE00080FB02031B0643EA102040F23003C2F2DF
:101AF00000031F6881FB021280FB0707C00B40EA4E
:101B0000474000F317000C90100640EA11201968B6
:101B100080FB0101C00B40EA414000F317000B902D
:101B20000CA80BA900F078FB0C980B9900F3170098
:101B3000CBF8000001F31700CAF800000DB0BDE8B3
:101B4000F08F000000F0070140F24410C2F20000E4
:101B5000816004298EBF042101A2515C017070478D
:101B60000001020403000000062888BF7047DFE878
:101B700000F005150D1109191D0000BF084600F001
:101B800095B900BF084600F0A5BC00BF084600F0AC
:101B9000F3B800BF084600F0ABBC00BF084600F039
:101BA000F9B800BF084600F087BC00BF21EAE17029
:101BB00040F23001C2F20001B0F5803FA8BF4FF4FF
:101BC000803008607047000086B041F24C00C4F2DB
:101BD00002000168002541F001010160006840F643
:101BE000405400F001000190019820200190012054
:101BF000CDE9020501A94FF09040C0F2030405951C
:101C0000049500F057FEEFF3108072B64FF090404D
:101C1000202100F029FF00950098A042F6D200BFD5
:101C20000098013000900098A042EFD200BF0098C9
:101C3000013000900098A042E8D200BF0098013027
:101C400000900098A042E1D200BF009801300090BF
:101C50000098A042E3D3D9E7FEE7000040F2A420B9
:101C6000C2F2000000F0D0BC40F24420C2F20000FA
:101C700000F0CABC40F20430C2F2000000F0C4BC64
:101C80007047000040F24440C2F20000704700007C
:101C900040F64440C2F200007047000040F22400C9
:101CA000C2F200000068704740F22800C2F2000053
:101CB0000068704740F27010C2F2000070470000E8
:101CC00040F27010C2F200001030704780B540F250
:101CD0004440C2F200004FF40061FEF752FD40F6AE
:101CE0004440C2F200004FF40061FEF74AFD40F2AA
:101CF0007010C2F20000002101600171C0E9021100
:101D000001610175C0E9061180BD000013792BB196
:101D10009068591C01F007011171704770B5D2F835
:101D200000E08446D06831F91E40C0EB042500EB8A
:101D3000651000F3170040F22405D060C2F20005E0
:101D40002D6880FB05562002EC0B44EA46440CEB60
:101D5000040606F31706360A21F81E600EF101018B
:101D60006FF39F2111609060BDE87040591C01F035
:101D7000070111717047000040F2240120EAE07071
:101D8000C2F20001B0F5004FA8BF4FF40040086058
:101D90007047000040F2280120EAE070C2F2000122
:101DA000B0F5004FA8BF4FF4004008607047000036
:101DB00040F22C00C2F200000068704740F2501060
:101DC000C2F200007047000040F25010C2F2000062
:101DD0001030704740F25010C2F200000021C0E9FC
:101DE0000011C0E90211C0E90411C0E906117047F1
:101DF000B0B50246D0E9000347F6715483FB0434C2
:101E0000DB0B081A43EA44431844C2E9001040F2CD
:101E10002C01C2F20001D568096844F6807380FB8A
:101E20000101000A40EA016444F2604E4BF2800C6A
:101E3000C0F212032819CFF6F27ECFF6ED7C4010E7
:101E40009C4204F31701D46010DD614403EB91213F
:101E5000984200F3170415DC7045BEBF04F55A2004
:101E600000F5DD500EEBA02410E000BF7445BEBFAE
:101E700001F55A2101F5DD510EEBA121984200F345
:101E80001704E9DD04EB0C0003EB90249068214477
:101E9000C0EB610142F6E06381FB0313C90B41EA29
:101EA0004341014401F317009160B0BD40F22C01A1
:101EB00020EAE070C2F20001B0F5003FA8BF4FF485
:101EC00000300860704700002DE9F04F0246576867
:101ED000D36840F6B14842F2083ACFF6A4187C180D
:101EE000C0F2281AA3FB0896A4FB0AB5C3EB03743F
:101EF00034444FEAE776D0F800C044F210604FEA6D
:101F0000E37346EBE176C0F2502003FB084394688C
:101F100006FB0A554CF68B568CFB000EC1F2B81628
:101F2000C4FB060E10EB0B004EEB050710EB09008F
:101F30007B41000F40EA031000F31700C2E9001CC8
:101F4000C2E90204BDE8F08F2DE9F04F81B00646EA
:101F5000006840F2A41AC2F2000A8846002848BF6E
:101F60004042DAF800100823401AC2170028C8BF00
:101F70000C23470883F01F059A40EF4098403A43EE
:101F8000C00B4CF2C06940EA4240C0F22D0943F652
:101F9000401C0844CFF6D27C20EAE0724FF40045A2
:101FA00048454FF40040CAF800200EDD02EB0C005B
:101FB00009EB5001C803490C00236446FEF7AEF953
:101FC000A446B0F5004FA8BF284640F2040BC2F269
:101FD000000BDBF800100923401A4FEAE07248BFFB
:101FE0000D23470883F01F049A40E74098403A4386
:101FF000C00B40EA4240084420EAE070B0F5004FD0
:10200000A8BF2846CBF800003168082380FB0101F7
:10201000C00B40EA414000F317003060D8F80000E0
:10202000002848BF4042DAF80410401AC2170028BE
:10203000C8BF0C23470883F01F069A40F74098401A
:102040003A43C00B40EA4240084420EAE072484567
:10205000CAF804200EDD02EB0C0009EB5001C803A6
:10206000490C0023FEF75AF90546B0F5004FA8BF0A
:102070004FF40045DBF804000923291A4FEAE17206
:1020800048BF0D234F0883F01F069A40F740994040
:102090003A43C90B41EA4241084420EAE070B0F5F6
:1020A000004FA8BF4FF40040CBF80400D8F8001050
:1020B00080FB0101C00B40EA414000F31700C8F863
:1020C000000001B0BDE8F08F80B5D0E900C3024642
:1020D00047F6AC7083FB000EC00BA1EB0C0340EA8B
:1020E0004E40034403F31700C2E9001380BD000013
:1020F00040F2A410C2F200005830704740F2A41021
:10210000C2F200006830704740F2A410C2F2000032
:102110002830704740F2A410C2F2000030307047FF
:1021200040F2A410C2F200001830704740F2A41030
:10213000C2F200002030704740F2A410C2F200004A
:102140003830704740F2A410C2F2000040307047AF
:1021500040F2A410C2F200004830704740F2A410D0
:10216000C2F200005030704740F2A410C2F20000EA
:102170000830704740F2A410C2F200000C307047E3
:1021800040F2A410C2F200001030704740F2A410D8
:10219000C2F200001430704780B50346D0E900C099
:1021A00080FB020EC00BA1EB0C0240EA4E40024441
:1021B00002F31700C3E9001280BD000040F2A41032
:1021C00040F20402C2F200000021C2F200024FF409
:1021D0000043C0E90611C0E90811C0E90A11C0E9CD
:1021E0000C11C0E90E110160136041605360C0E939
:1021F0001011C0E91211C0E91411C0E91611C0E9AB
:102200001811C0E91A11C0E91C11C0E90211C0E996
:102210000411936070470000F0B581B00668054670
:102220000C463046002E48BF704222684FF40047EB
:10223000002A48BF5242904288BF024642F6A1603F
:10224000C0F2630082424FF4004006D30020C9F27E
:10225000507031210023FEF761F840F20401C2F210
:1022600000018A68831A02EBE323B3F5004FB8BF7D
:102270001F469042B8BF074687FB0602C00B40EAE4
:10228000424000F317008F602860206887FB000140
:10229000C00B40EA414000F31700206001B0F0BDE0
:1022A0000B68C01A80FB0202C00B40EA424018448F
:1022B00000F317000860704741F6E440C2F20000E6
:1022C0007047000041F6E460C2F200007047000071
:1022D00040F21C20C2F200000830704740F21C207F
:1022E000C2F200000C30704740F21C20C2F2000025
:1022F0001030704740F21C20C2F2000014307047CA
:1023000040F21000C2F200004068704740F21C200A
:10231000C2F200007047000040F21C20C2F2000030
:102320000430704742F2E400C2F20000704700003F
:1023300044F2E400C2F200007047000040F21000D6
:10234000C2F200000068704740F21C20C2F2000098
:102350002030704740F21C20C2F200002430704749
:1023600040F21C20C2F200001830704740F21C20DE
:10237000C2F200001C30704740F23400C2F200008C
:102380000068704780B542F2E400C2F200004FF4EA
:102390000051FEF7F6F944F2E400C2F200004FF4F7
:1023A0000051FEF7EEF941F6E440C2F200004FF4AE
:1023B0000071FEF7E6F941F6E460C2F200004FF466
:1023C0000071FEF7DEF940F21C20C2F2000000218D
:1023D000C0E90011C0E90211C0E90411C0E9061109
:1023E000C0E9081180BD0000F0B5DDE908CE16682F
:1023F000DCF8004035467444CCF800406FF3DF252C
:1024000040F2100E51F825C01D68C2F2000EDEF831
:102410000440ACEB050784FB0747E40B44EA474460
:102420002C441C60DEF8003084FB0375FF0B47EA88
:102430004547384400F3170041F82600701CDDE9D9
:1024400005346FF3DF201060206845F69A128CFB8C
:10245000021753F82060C90B41EA4741771A87FBFE
:102460000265F60B46EA4546664406F3170643F84E
:1024700020600130079900F03F00206007F317004B
:102480000F6880FB026503EB8703D3F80041F60B6E
:1024900046EA4546A61B86FB0225D20B42EA454288
:1024A000104400F31700C3F80001781C00F03F024D
:1024B00006F317000A60F0BD40F2100120EAE07058
:1024C000C2F20001B0F5004FA8BF4FF400404860D1
:1024D0007047000040F2100120EAE070C2F20001F3
:1024E000B0F5004FA8BF4FF40040086070470000EF
:1024F00040F2340120EAE070C2F20001B0F5004F72
:10250000A8BF4FF40040086070470000704700000B
:10251000FFF75ABB014690F82500022828D180B564
:102520000868D1E910CE8A6C036823F00E030360BB
:10253000136823F480731360026822F001020260C2
:102540000EF01F00012202FA00F0CCF80400D1E9DD
:1025500013205060486D30B1026822F4807202602E
:10256000D1E9160242600020BDE8804003E000BFD0
:102570000420C8630120012281F82520002281F86F
:102580002420704790F82510022931D180B50168C8
:10259000D0E910CE826C0B6823F00E030B600B6841
:1025A00023F001030B60116821F4807111600EF0BB
:1025B0001F02012101FA02F2CCF80420D0E9133203
:1025C0005A60426D32B1136823F480731360D0E90E
:1025D0001623536080F82510826B002180F82410A8
:1025E0000AB190470021BDE880400846704700BF0F
:1025F0000421C1630121002280F8251080F82420E5
:1026000008467047C06B7047B0B5D0E910C3026888
:10261000DCF8001003F01F030424D2F800E09C4013
:102620000C4218BF1EF0040520D102249C400C422D
:1026300018BF1EF0020529D1D940090714D51EF094
:10264000080108BFB0BD116821F00E011160012121
:1026500001FA03F2CCF80420C16380F82510416B25
:10266000002280F8242069B9B0BD00BF1168890636
:1026700003D4116821F004011160CCF80440016B0F
:102680000029F1D0BDE8B040084700BF11688906B5
:1026900006D4116821F00A011160012180F825108B
:1026A000CCF80440C16A0022002980F82420E9D136
:1026B000DAE7000000284FF0010100F085802DE9E5
:1026C000F04740F2000CC4F2020C03684FF6F832F7
:1026D0000CF5816ECBF6FD72734538BF02F5806252
:1026E0004CF6CD441A44CCF6CC44A2FB042903F0AA
:1026F000FC02A2F10802A2FB04280CF580646FF032
:102700000305D0E902A607693CBF0024C4F2020415
:1027100005EA9905C0E91045022480F825401C68A7
:1027200047F6F07224EA0202324346693A43876967
:102730003243C6693A43076A32433A4342EA0A02DD
:102740001A600CF50262734538BF0CF50062AB18D5
:102750000CF50862C264C8F3041201FA02F540F6EF
:102760008401BAF5804FC4F202018364056505D186
:10277000002242601A600D6018E000BF4268D4B2C7
:10278000013A032A4FF000021C600D600ED8631E50
:1027900001EB830747F87C2F03F01F0201239340CE
:1027A000C1F8C030BC313A4602E000BF002100232E
:1027B000C0E9152100210122C365C16380F82520ED
:1027C00080F82410BDE8F0470846704790F824C010
:1027D000BCF1010F47D04FF0010C80F824C090F8F5
:1027E00025C0BCF1010F3BD12DE9F0414FF0020CA7
:1027F00080F825C04FF0000CC0F83CC0D0F800C0F5
:1028000000F14C0E9EE83040DCF80060BEF1000F95
:1028100026F00106CCF8006065601CBFD0E91645C3
:102820006560D0E91056012706F01F06846807FA94
:1028300006F6D0F830806E60CCF804300B46102CD1
:1028400004BF13460A46CCF80830CCF80C20DCF85C
:102850000010B8F1000F09D041F00E010EE000BFEA
:10286000002180F824100220704700BF21F00401ED
:10287000CCF80010DCF8001041F00A01CCF8001090
:10288000806C0168C90303D5016841F4807101605F
:10289000BEF1000F05D0DEF8000040F48070CEF8E5
:1028A0000000DCF8000040F00100CCF8000000203F
:1028B000BDE8F0812DE9F04F83B00E68002E00F0E6
:1028C000CF8000F1200241F2004C009200F1384725
:1028D000C4F6000C06224FEAB725604508BF052262
:1028E000052D38BF4FEAB722002500274FF000081A
:1028F00001920AE00E6808F1010836FA08F207F1C1
:10290000020705F1040500F0AB80012202FA08FE7F
:1029100016EA0E09EED0D1F804C003220CF0030B26
:10292000ABF1010602FA07F4012E6FEA040A11D88E
:102930008468CE6804EA0A04BE4034438460446874
:1029400024EA0E06CCF3001404FA08F42643466089
:1029500006E000BFBBF1030F02D14FF0030B21E0F3
:10296000C6688C6806EA0A06BC402643BBF1020F23
:10297000C66017D16FF00302009B02EA580605F00B
:102980001C020F2453F806C004FA02FE0C692CEA5C
:102990000E0C04FA02F242EA0C029A51D1F804C079
:1029A0000CF0030B02680BFA07F302EA0A021A435F
:1029B0001CF4403F02609DD041F26003C4F2020368
:1029C0001A6840F2004E42F001021A601A68C4F21E
:1029D000010E02F001020292029A28F003024FF661
:1029E000084C7244CFF6FF7C52F80C3005F00C0610
:1029F0000F24B440A343019C04FA06F6334342F883
:102A00000C30DEF808204B6842EA090640F20C4C14
:102A1000DC0258BF22EA0906CEF80860C4F2010CB5
:102A2000DCF800209C0242EA090658BF22EA0906A7
:102A3000CCF80060DEF804209C0342EA090658BF87
:102A400022EA0906CEF80460DEF80020DB0342EA41
:102A5000090658BF22EA0906CEF800604AE700BF1F
:102A600003B0BDE8F08F0000426902EA0103914320
:102A700041EA0341816170471823002A08BF2823D7
:102A8000C150704747F2E400C2F20000006870478E
:102A9000FEF70CB9002804BF0120704770B504464A
:102AA00090F8350028B9002084F83400204600F062
:102AB00073F8022184F8351020686269C36940F612
:102AC000BF76B343022AC361016203D121690222A6
:102AD00044E000BFD4E90206002521284FF400603D
:102AE00038BF012500F0B6FB2169B1F5007F07D1A1
:102AF000E368626963B10723002E08BF06230BE079
:102B00000522002E08BF04222A44D040626905E055
:102B10000823002E08BF07232B44D84000EB800079
:102B20004000B0FBF2F04CF6CD420530CCF6CC4282
:102B3000A0FB02206FF0FF0202EB101212F1FE0F59
:102B400006D2A06B40F01000A063012070BD00BF52
:102B5000020900F00803206842EA431211430162AF
:102B6000C16940F6BF72261D91434CCEA569114341
:102B700031432943194343F0800241F40061B02AF4
:102B8000C16103D1C16941F48051C16100200121BB
:102B9000A06384F8351070BD2DE9F04397B004466A
:102BA00000201690CDE91400CDE9120001A84421BF
:102BB000FDF7E7FD206843F60041C4F200018842BA
:102BC00076D043F60001C4F20001884240F0DE8076
:102BD0004FF40060019001A800F08EFD002818BF9E
:102BE000FFF796FC41F24C00C4F20200C16840F6C7
:102BF000000541F48041C160C168C4F6000501F4DC
:102C0000804100910099016812AE41F0020101601B
:102C100001684FF0020801F002010091009901687B
:102C2000002741F0040101600068314600F0040013
:102C3000009000984FF43040129005201690A5F5B2
:102C40008060CDF84C80CDE91477FFF733FE40204B
:102C5000CDE912080620169028463146CDE91477B2
:102C6000FFF728FE0820C4F2020040F24425143089
:102C7000C2F200050C214FF4807385E8830005F152
:102C800014004FF480664FF0200C80E848104FF499
:102C90004050802228622846C5E90372FFF70AFDEA
:102CA00000284FF0300618BFFFF732FC6CE000BF81
:102CB0004FF40060019001A800F01EFD002818BF2D
:102CC000FFF726FC41F24C00C4F20200C16812ADCD
:102CD00041F40041C160C1684FF0100801F40041A7
:102CE0000091009901684FF0020941F00101016073
:102CF0000168002701F00101009100990168062692
:102D000041F0040101600068294600F004000090D1
:102D100000984FF09040CDF84880CDF84C90CDE928
:102D200014771696FFF7C6FD4FF4A050CDE91209AF
:102D300040F60000C4F600002946CDE91477169647
:102D4000FFF7B8FD40F2A4250820C2F20005C4F246
:102D500002000F214FF4807385E8030105F1140090
:102D60004FF480664FF0200C80E848104FF440503C
:102D7000802228622846C5E90372FFF79BFC4FF0CA
:102D80002C0608B1FFF7C4FBA551AC6217B0BDE833
:102D9000F083000000294FF0010318BF002A01D181
:102DA0001846704790F83530012B03D190F8343035
:102DB000012B03D102231846704700BF10B582B023
:102DC000012380F83430042380F8353000238363F6
:102DD000D0F800E04162DEF81C3003F00703052B59
:102DE00004D0032B08BF520001E000BF520002854F
:102DF00042858C46026B45F2994145F2754345F296
:102E00005144C0F60001C0F60003C0F60004C2E958
:102E10000B315463DEF81C1001F44071B1F5407FB2
:102E200008D100210191DEF80C100191DEF80810A4
:102E300001910199038D04460EF10C011046624682
:102E4000FFF7C4FC70B1A06B012340F00800A06341
:102E5000002084F8353084F8340002B0BDE810401A
:102E600018467047002084F8340020684168C9077C
:102E700003D1416841F001014160C169490503D4B2
:102E8000C16941F48061C161002302B0BDE8104016
:102E900018467047FDF714BFFDF768BF00294FF0D3
:102EA000010318BF002A01D11846704790F8353049
:102EB000012B03D190F83430012B03D102231846A3
:102EC000704700BF10B5012380F83430032380F829
:102ED000353000238363D0F800E0C161DEF81C3098
:102EE00003F00703052B03D0032B08BF520000E0BB
:102EF000520002844284D0F82CC045F2C54245F20B
:102F0000A14345F25144C0F60002C0F60003C0F6EA
:102F10000004CCE90B32CCF83440038C04460EF1AB
:102F20000C026046FFF752FC70B1A06B012340F029
:102F30000800A063002084F8353084F83400BDE830
:102F400010401846704700BF002084F83400206805
:102F50004168890703D4416841F002014160C169B9
:102F6000490503D4C16941F48061C1610023BDE812
:102F70001040184670470000FDF74ABFFDF754BFE8
:102F800040F2180047F2E401C2F20000C2F2000170
:102F900040680A68104408607047000080B503204C
:102FA00000F0B6F80F2000F009F800281CBF01203F
:102FB00080BD00F055F8002080BD0000B0B586B09F
:102FC00041F25801C4F202010A68054642F00102CA
:102FD0000A60096801A801F001010191019969469F
:102FE00000F042FE00F062FE4DF68361C4F21B3138
:102FF000A0FB01014FF0FF3000EB914140F2643043
:10300000C2F200004FF0804240F2E7330024C0E9F2
:103010000021C0E90243046101F02CF910B106B0AF
:10302000B0BD00BF40F26430C2F2000001F056F9BA
:103030000028F4D11C2000F02DF80F2D0CD81C20F6
:103040002946002200F038F840F218010020C2F2B0
:1030500000010D6006B0B0BD012006B0B0BD00009B
:1030600082B041F25800C4F20200816841F00101CF
:103070008160816801F0010101910199016841F0CD
:1030800080510160006800F080500090009802B00C
:1030900000F0D6B8002848BF704700F01F01012299
:1030A00002FA01F11C2202EAD0004EF20012CEF226
:1030B000000281507047000010B54EF60C5CCEF255
:1030C000000CDCF80030C3F3022E8EF00704042C51
:1030D00028BF0424BEF103034FF0FF3E0EFA04F4B0
:1030E00038BF0023A14399400EFA03F39A431143DA
:1030F00000F00F0200F160430901043A03F5644354
:103100006244002848BF02F10C03197010BD000092
:103110004EF60C51CEF200010A684FF6FF031A403A
:1031200060F30A2242F0806040F0FD700860704752
:1031300047F21401C4F2000151F8142CB0F5007FDD
:103140003CD0002874D1C86E02F4C06220F48070B4
:10315000B2F5806FC8662FD151F8140C012262F3CA
:103160004A2041F8140C40F22000C2F2000000682E
:10317000322250434DF68362C4F21B32A0FB02029E
:10318000900C00BF0A68520511D5421C0FD00A6886
:1031900052050CD558B10A68520508D5012806D049
:1031A0000A68520503D50228A0F10400EAD1086894
:1031B000400544BF0320704700207047C86E02F4EA
:1031C000C06240F48070B2F5806FC866F4D151F8E7
:1031D000140C012262F34A2041F8140C40F2200042
:1031E000C2F200000068322250434DF68362C4F2FE
:1031F0001B32A0FB0202900C0A68520511D5421C3A
:103200000FD00A6852050CD558B10A68520508D586
:10321000012806D00A68520503D50228A0F104004F
:10322000EAD10868400544BF03207047C4E700BFE7
:10323000022060F34A2241F8142C0020704700005D
:1032400047F20800C4F20000016841F480410160C7
:103250007047000010B541F20C0EB0F5002FC4F21B
:10326000020E29D1DEF88400DEF88410890700F40C
:10327000407105D5B1F5807F04BF4FF4004010BD0B
:10328000DEF88800800705D5B1F5007F04BF4FF454
:10329000FA4010BD5EF80C0CB1F5407F00F400322E
:1032A0004FF0000004BF47F2B010C0F20B00002A3C
:1032B00008BF104610BD00BF0146DEF8000042F214
:1032C000004C00F003000228C0F2F40C04D14FF4CB
:1032D000806360460CE000BFDEF8000000F00300F1
:1032E000032859D143F20060C0F26E104FF400334E
:1032F0005EF80C2C134018BF0346DEF80020FF29AF
:103300004FF000004FDDC2F303120132B3FBF2F3C2
:10331000B1F5805F32DAB1F5806F80F29380B1F55C
:10332000807F00F06981B1F5007F40F0C181DEF857
:103330007C0010F4402100F0AB81DEF88800B1F58C
:10334000802F05D110F002001CBF4FF4FA4010BDD1
:103350005EF80C0CB1F5002F04D110F480606046CB
:1033600018BF10BDDEF88400B1F5402F00F0020256
:103370004FF0000008BF900310BD00BFB1F5804FB3
:1033800080F28280B1F5805F00F04A81B1F5005F84
:1033900000F0A4808CE100BF0023DEF80020FF29AC
:1033A0004FF00000AFDC4B1E1F2B2FD8DFE813F0CF
:1033B0002000EA008001AC0080018001800108014A
:1033C00080018001800180018001800180018001F5
:1033D00080018001800180018001800180018001E5
:1033E0008001800180018001800180018001CA008C
:1033F000DEF87C0000F00301012900F04D81002976
:1034000040F04E81BDE8104000F066BC402900F05D
:103410003781802940F04C81DEF87C0000F4404187
:10342000B1F5804F00F03881002900F031815EF85D
:103430000C0C10F4806018BF6046B1F5004F18BF47
:10344000002010BD00F0F880B1F5006F40F0308131
:10345000DEF87C2002F44001C2F3815248F2000001
:10346000C0F2BB00DFE812F01801F60024010400EE
:103470005EF80C0C10F4806018BF6046B1F5400F88
:1034800018BF002010BD00BF28D0B1F5004F40F09C
:103490000F81DEF87C0000F04050B0F1005F00F0DA
:1034A000FB80B0F1805F40F0D980DEF80000C003FF
:1034B00040F1D480DEF80000DEF80010C0F30620F2
:1034C000C90E06D1DEF8001089034FF0110158BF74
:1034D00007215843B0FBF1F010BD00BFDEF87C00BF
:1034E00000F04061B1F1006F00F0BA80DEF88C00AE
:1034F00010F002001CBF46F60040C0F2DC2000299C
:1035000018BF002010BD00BFDEF87C0000F03001C5
:10351000102900F0C180002900F0BA805EF80C0C80
:10352000202904D110F48060604640F0C180DEF8AC
:103530008400302900F002024FF0000008BF900321
:1035400010BD00BFDEF87C0000F44061B1F5806F73
:1035500000F0A280002900F09B805EF80C0CB1F511
:10356000006F04D110F48060604640F0A180DEF866
:103570008400B1F5406F00F002024FF0000008BF78
:10358000900310BDDEF87C0000F00C01042900F06F
:103590008380002900F07C805EF80C0C082904D19F
:1035A00010F48060604640F08380DEF884000C29CF
:1035B00000F002024FF0000008BF900310BD00BFF2
:1035C000DEF87C0000F0C001402965D000295FD002
:1035D0005EF80C0C802904D110F48060604640F045
:1035E0006780DEF88400C02900F002024FF000007E
:1035F00008BF900310BD00BFDEF87C0000F440312E
:10360000B1F5803F48D0002942D05EF80C0C10F490
:10361000806018BF6046B1F5003F18BF002010BDA4
:10362000DEF87C10C1F3016143F20060C0F26E105D
:10363000DFE801F03E102E14DEF87C2002F4401189
:10364000C2F3015248F20000C0F2BB00DFE802F012
:103650002402303EDEF80000C00201D4002010BD7C
:10366000DEF80000DEF80010C0F30620C1F341517F
:103670000222584302EB4101B0FBF1F010BD00BF44
:10368000DEF87C0000F44051B1F5805F04D089B9C8
:10369000BDE8104000F00ABBBDE8104000F032BBAE
:1036A0005EF80C0C02291DD110F48060604619D020
:1036B00010BD00BF5EF80C0C10F4806018BF6046AF
:1036C000B1F5005F18BF002010BD00BF5EF80C0C04
:1036D00010F4806018BF6046B1F5401F18BF00208D
:1036E00010BD00BFDEF88400032900F002024FF095
:1036F000000008BF900310BD2DE9F04182B00446E0
:10370000807841F288060007C4F2020602D4002045
:103710002FE000BF56F8300C5FEAC0080BD456F813
:10372000300C40F0805046F8300C56F8300C00F069
:1037300080500190019847F20007C4F200073868F2
:1037400040F480703860FFF79DF905463868C00581
:1037500000F1D680FFF796F9401B0228F6D9032026
:10376000B8F1000F05D456F8301C21F0805146F80E
:10377000301C2168CA0713D18A0719D44A071FD4FD
:103780000A0725D48A062BD44A0631D40A0637D430
:10379000CA053DD48A0543D44A0549D457E000BF41
:1037A0003268636822F003021A4332608A07E5D563
:1037B0003268A36822F00C021A4332604A07DFD550
:1037C0003268E36822F030021A4332600A07D9D522
:1037D0003268236922F0C0021A4332608A06D3D5C8
:1037E0003268636922F440621A4332604A06CDD5DA
:1037F0003268A36922F440521A4332600A06C7D5E0
:103800003268E36922F440421A433260CA05C1D5E6
:103810003268236A22F440321A4332608A05BBD5EB
:103820003268636A22F440221A4332604A050ED598
:103830003268A36A22F440121A43B3F5801F326043
:1038400005D156F87C2C42F4801246F87C2C0A05EF
:103850000ED53268E36A22F440021A43B3F5800FB2
:10386000326005D156F87C2C42F4801246F87C2C4C
:10387000CA040ED53268236B22F040721A43B3F1AA
:10388000807F326005D156F87C2C42F4801246F8D5
:103890007C2C8A040ED53268636B22F040621A4396
:1038A000B3F1006F326005D156F87C2C42F48012DF
:1038B00046F87C2C4A040ED53268A36B22F0406295
:1038C0001A43B3F1006F326005D156F87C2C42F4F4
:1038D000801246F87C2C09040ED53168E26B21F089
:1038E00040511143B2F1805F316005D156F87C1C24
:1038F00041F4803146F87C1C02B0BDE8F08100BF85
:10390000B06810F4407010D0216C88420BD0B068C1
:10391000B16820F4407041F48031B160B16821F4A5
:103920008031B160B060C0070CD1B068216C20F468
:1039300040700843B0600020B8F1000F3FF519AFA8
:1039400011E700BFFFF79EF8054641F2883700BF38
:10395000B0688007E9D4FFF795F8401BB842F7D963
:10396000FDE600002DE9F047002863D042F2000A8E
:10397000C4F2020A0446DAF800000D4600F00F0017
:1039800081420CD9DAF8000020F00F002843CAF871
:103990000000DAF8000000F00F00A8424AD12168C8
:1039A00041F20808C807C4F2020803D1880740F1B1
:1039B000D080B5E0606858F8082C022838D0032879
:1039C0003CD1920136D5D8F80420D8F8043042F220
:1039D0000046C3F3031302F00302D8F80470013366
:1039E000C0F2F406032A04BF43F20066C0F26E166A
:1039F000B6FBF3F2D8F80430C7F306277A43C3F3D3
:103A00004163022707EB4303B2FBF3F24BF200439F
:103A1000C0F2C4439A4259D9D8F8002012F0F00FEE
:103A200049D0890752D5A16800294FD143E000BF92
:103A3000910305D40120BDE8F08700BF5105F9D5F9
:103A4000D8F8001001F00C0104293FD0D8F800107C
:103A500001F00C01082939D0D8F8001001F00C0150
:103A60000C2933D1D8F80410D8F8042042F20047CA
:103A7000C2F3031201F00301D8F804300132C0F29E
:103A8000F407032904BF43F20067C0F26E17B7FBC7
:103A9000F2F1D8F80420C3F306235943C2F341627C
:103AA000022303EB4202B1FBF2F14BF20042C0F2FF
:103AB000C44291420AD9D8F80010082262F30711D3
:103AC0004FF00109C8F8001002E000BF4FF00009F4
:103AD000D8F8001021F003010843C8F80000FEF7F1
:103AE000D1FF064641F28837D8F80000616800F03F
:103AF0000C00B0EB810F07D0FEF7C4FF801BB8426B
:103B0000F2D90320BDE8F0872168880708D4B9F10D
:103B1000000F1ED0D8F8000020F0F00017E000BF22
:103B2000480705D5D8F8000040F4E060C8F8000068
:103B3000080706D5D8F80000072262F30D20C8F860
:103B40000000D8F80000A26820F0F0001043C8F888
:103B50000000DAF8000000F00F0085421BD2DAF80E
:103B6000000020F00F002843CAF80000FEF78AFF8B
:103B7000064641F2883700BFDAF8000000F00F0077
:103B8000A84207D0FEF77EFF801BB842F4D903207D
:103B9000BDE8F0872168480707D5D8F80000E2683B
:103BA00020F4E0601043C8F80000080708D5D8F8F2
:103BB0000000216920F4605040EAC100C8F800000C
:103BC000D8F8000042F20041C0F2F40100F00C000D
:103BD000042808462DD0D8F8000000F00C00082872
:103BE00043F20060C0F26E1023D0D8F8002002F03B
:103BF0000C020C2A1CD1D8F80420D8F8043002F0AA
:103C00000302C3F30313D8F804700133032A08BF77
:103C10000146B1FBF3F0D8F80410C7F30627C1F34F
:103C200041610222784302EB4101B0FBF1F000E078
:103C30000020D8F8001047F67E02C1F30311C0F649
:103C40000002515C40F2200201F01F0120FA01F154
:103C500040F21800C2F200000068C2F200021160D7
:103C6000BDE8F047FFF7AAB90F22026041F208024F
:103C7000C4F20202136803F003034360136803F005
:103C8000F0038360136803F4E063C36012684FF4C9
:103C9000E06303EAD202026142F20000C4F20200D1
:103CA000006800F00F0008607047000040F220003C
:103CB00041F20801C2F20000C4F202010068096882
:103CC00047F68E02C1F30221C0F60002515C01F0FA
:103CD0001F01C8407047000040F2200041F2080177
:103CE000C2F20000C4F202010068096847F68E02C1
:103CF000C1F3C221C0F60002515C01F01F01C840AF
:103D00007047000041F20C01C4F2020151F8040CAA
:103D100042F20042C0F2F40200F00C000428104607
:103D200008BF704751F8040C00F00C00082843F25B
:103D30000060C0F26E1025D051F8043C03F00C0373
:103D40000C2B1CBF0020704780B5D1F800C00B6859
:103D50000CF0030CC3F3031E0B680EF1010EBCF153
:103D6000030F08BF02460968B2FBFEF0C3F3062347
:103D7000C1F341610222584302EB4101B0FBF1F073
:103D8000BDE8804070470000002804BF0120704754
:103D90002DE9F04182B00446007841F20006C007E8
:103DA000C4F202061ED1207880073DD42078000797
:103DB00064D42078400700F187802078800600F1E5
:103DC000D980E569002D00F04282B06800F00C0057
:103DD0000C2840F03181012D40F08E81012002B08D
:103DE000BDE8F081B06800F00C01F068082961D0EE
:103DF000032281F00C0122EA00000844B0FA80F0AE
:103E0000400957D161683068B1F5803F07D0B1F5FE
:103E1000A02F40F0E38040F480203060306840F410
:103E200080303060E4E000BFB068F16800F00C0062
:103E3000042871D001F0030180F00C0081F0020130
:103E40000844B0FA80F0400966D1E1683068002982
:103E500000F0E08040F480703060FEF713FE05460D
:103E60003068400500F10A81FEF70CFE401B022875
:103E7000F6D9032002B0BDE8F08100BF6169D6F831
:103E80009400002900F0948040F00100C6F89400EE
:103E9000FEF7F8FD054600BFD6F8940080073FF511
:103EA00088AFFEF7EFFD401B0228F5D9032002B0D2
:103EB000BDE8F081306880037FF575AF6068002849
:103EC0007FF471AF3EE000BFB06D5FEAC00808D478
:103ED000B06D40F08050B065B06D00F08050019042
:103EE000019847F20007C4F200073868C0052DD4D6
:103EF000386840F480703860FEF7C4FD054600BFA6
:103F00003868C00522D4FEF7BDFD401B0228F7D952
:103F1000032002B0BDE8F0813068400501D5E068BB
:103F200080B17068216920F0FE4040EA0160706055
:103F300040F21800C2F200000068FFF73FF80028C6
:103F40003FF434AF012002B0BDE8F081A168D6F89B
:103F50009000012908D0052940F0AE8040F004000F
:103F6000C6F89000D6F8900040F00100C6F8900026
:103F7000AEE000BFA169D6F89800002900F0868065
:103F800040F00100C6F89800FEF77CFD054600BF32
:103F9000D6F8980080073FF514AFFEF773FD401B7D
:103FA00002284FF00300F3D902B0BDE8F08100BF52
:103FB00020F00100C6F89400FEF764FD054600BF3E
:103FC000D6F8940080077FF5F4AEFEF75BFD401B4A
:103FD0000228F5D9032002B0BDE8F08120F480303A
:103FE00030603068002920F48020306000F0BE800E
:103FF000FEF748FD054600BF306880033FF5D3AEAD
:10400000FEF740FD401B6428F6D9032002B0BDE84E
:10401000F08100BF20F480703060FEF733FD05466C
:10402000306840057FF5C2AEFEF72CFD401B02282C
:104030004FF00300F4D9B7E7306820F080703060AB
:10404000FEF720FD022D05460CD100BF306880012F
:1040500040F1B880FEF716FD401B02284FF0030028
:10406000F4D9A1E73068800140F1EA80FEF70AFD4B
:10407000401B02284FF00300F4D995E770682169CE
:1040800020F0FE4040EA016070608FE620F0010001
:10409000C6F89800FEF7F6FC054600BFD6F8980073
:1040A00080077FF58EAEFEF7EDFC401B02284FF037
:1040B0000300F3D978E700BF20F00100C6F89000B4
:1040C000D6F89000002920F00400C6F890005DD0DA
:1040D000FEF7D8FC054641F2883700BFD6F89000BD
:1040E000800765D4FEF7CEFC401BB842F6D903200A
:1040F00002B0BDE8F08100BFF068216A00F0030261
:104100008A427FF41FAF626A6FF00F0300F0F00184
:1041100003EB021291427FF415AFA16A00F4FE4254
:10412000B2EB012F7FF40EAFE16A00F07842B2EB00
:10413000C16F7FF407AF226B0023CFF6E07303EA71
:10414000025200F4C001A2F5001291427FF4FAAECF
:10415000616B4FF07E4202EA016100F0C06001F144
:104160007E4188427FF4EEAE71E000BFFEF78AFC2C
:10417000054600BF306880037FF515AEFEF782FC70
:10418000401B64284FF00300F4D90DE7FEF77AFCDA
:10419000054641F2883700BFD6F89000800707D562
:1041A000FEF770FC401BB8424FF00300F4D9FBE669
:1041B000B8F1000F3FF501AEB06D20F08050B06552
:1041C000FBE500BFF06848F20C01C0F29F1104F15A
:1041D000200700EA010C8ECF6FF00F00D4E90C54D9
:1041E00000EB02100022CFF6E07241EA0C0102EA75
:1041F00005520843A2F500124FF07E4540EA032025
:1042000005EA0465104305F17E4540EAC76028438E
:10421000F060306840F080703060F06840F080708E
:10422000F060FEF72FFC0446306880010FD4FEF7E3
:1042300029FC001B02284FF00300F5D9B4E600BFAB
:10424000F0684FF6FC71CFF6EE610840F060002098
:1042500002B0BDE8F0810000704700007047000028
:104260007047000070470000704700007047000072
:1042700070470000002804BF0120704710B50446B5
:1042800090F83D0028B9002084F83C00204600F05A
:1042900023F8022084F83D002068211D01F064F914
:1042A000012084F8480084F83E0084F83F0084F838
:1042B000400084F8410084F8420084F8430084F808
:1042C000440084F8450084F8460084F8470084F8E8
:1042D0003D00002010BD00007047000090F83D1028
:1042E00001291DD1022180F83D10016842F6FF32FC
:1042F000C868C4F20102914240F00100C86011DCBC
:10430000B1F1804F20D040F20040C4F20000814261
:104310001AD040F60000C4F20000814214D020E020
:104320000120704742F60040C4F2010081420BD0E8
:1043300044F20000C4F20100814205D043F2004083
:10434000C4F2010081420CD188680722C0F2010248
:104350000240062A4FF00000E3D0B2F5803F08BFCC
:104360007047086840F001000860002070470000B6
:1043700070470000F0B581B004460068C568066962
:10438000B10717D515F0020114D06FF002010161D9
:10439000012121778069800704D02046FFF7E8FFDC
:1043A00006E000BF204600F0CBF8204600F0CAF837
:1043B00000202077700719D515F0040016D020686A
:1043C0006FF00401016102212177806910F4407FC0
:1043D00004D02046FFF7CCFF06E000BF204600F0E7
:1043E000AFF8204600F0AEF800202077300717D550
:1043F00015F0080014D020686FF008010161042155
:104400002177C069800703D02046FFF7B1FF05E0A0
:10441000204600F095F8204600F094F80020207720
:10442000F00619D515F0100016D020686FF01001B5
:10443000016108212177C06910F4407F04D0204633
:10444000FFF796FF06E000BF204600F079F820460F
:1044500000F078F800202077F00718BF15F0010071
:1044600006D020686FF001010161204600F06CF871
:1044700016F4025F05F0800718BF002F02D1F00587
:1044800009D410E020686FF4025101612046FFF763
:10449000E5FEF00507D537B120686FF48071016142
:1044A0002046FFF7D9FE700609D515F0400006D06A
:1044B00020686FF040010161204600F04DF8B00621
:1044C00009D515F0200006D020686FF020010161A9
:1044D0002046FFF7C5FEF00209D515F4801006D07E
:1044E00020686FF4801101612046FFF7BDFEB00225
:1044F00009D515F4001006D020686FF40011016191
:104500002046FFF7AFFE700209D515F4800006D0F3
:1045100020686FF4800101612046FFF7A7FE30029A
:104520000CD515F4000009D021686FF40002204674
:104530000A6101B0BDE8F040FFF79ABE01B0F0BDDE
:1045400070470000704700000068B0F1804F18BF4E
:104550007047FEF715BD000070470000D0F88C30A2
:10456000202B1CBF0220704710B5044600294FF0D5
:10457000010018BF002A01D110BD00BFE066002075
:104580002067204602F0B0F90028F5D1E06E01283E
:104590001CBF012010BD206810210162206850E876
:1045A000000F216840F0100041E8000202B32068CB
:1045B00050E8000F216840F0100041E80002BAB155
:1045C000206850E8000F216840F0100041E8000228
:1045D00072B1206850E8000F216840F0100041E8F7
:1045E0000002002A4FF0000008BF10BDD6E700BF50
:1045F000002010BDD0F88C30202B1CBF022070474B
:1046000010B5044600294FF0010018BF002A01D15F
:1046100010BD00BFE06600202067204602F008FAC7
:10462000E16E0120012918BF10BD20681021016230
:10463000206850E8000F216840F0100041E80002B7
:10464000DAB1206850E8000F216840F0100041E81E
:10465000000292B1206850E8000F216840F010007D
:1046600041E800024AB1206850E8000F216840F09C
:10467000100041E80002002ADAD1002010BD00003D
:10468000FCF71EBD70470000704700007047000037
:1046900010B50446206850E8000F216820F490709F
:1046A00041E80002DAB1206850E8000F216820F4E8
:1046B000907041E8000292B1206850E8000F216834
:1046C00020F4907041E800024AB1206850E8000FE1
:1046D000216820F4907041E80002002ADAD14FF6F8
:1046E000FE70CEF6FF7000BF216851E8021F2268FD
:1046F000014042E80213C3B1216851E8021F226859
:10470000014042E8021383B1216851E8021F226888
:10471000014042E8021343B1216851E8021F2268B8
:10472000014042E80213002BDED1E06E012824D1C3
:10473000206850E8000F216820F0100041E80002D6
:10474000DAB1206850E8000F216820F0100041E83D
:10475000000292B1206850E8000F216820F010009C
:1047600041E800024AB1206850E8000F216820F0BB
:10477000100041E80002002ADAD120688068400673
:1047800038D500BF206850E8020F216820F04000B3
:1047900041E80202DAB1206850E8020F216820F0F7
:1047A000400041E8020292B1206850E8020F2168FF
:1047B00020F0400041E802024AB1206850E8020FB0
:1047C000216820F0400041E80202002ADAD1D4F842
:1047D000800078B100218163FDF79CFE50B1D4F8D0
:1047E0008000FDF70FFF202804D11020C4F89000AE
:1047F000032010BD0020A4F85E0021680F220A6289
:104800008A6942F008028A612021C4F88C10E066AF
:1048100010BD00007047000010B500BF016851E8EE
:10482000001F026821F4907142E80013DBB10168B7
:1048300051E8001F026821F4907142E8001393B11F
:10484000016851E8001F026821F4907142E80013EA
:104850004BB1016851E8001F026821F4907142E8F1
:104860000013002BDAD14FF6FE71CEF6FF7100BFB8
:10487000026852E8022F03680A4043E80224C4B1E8
:10488000026852E8022F03680A4043E8022484B118
:10489000026852E8022F03680A4043E8022444B148
:1048A000026852E8022F03680A4043E80224002C01
:1048B000DED1C16E012924D1016851E8001F0268D0
:1048C00021F0100142E80013DBB1016851E8001F3C
:1048D000026821F0100142E8001393B1016851E829
:1048E000001F026821F0100142E800134BB101687B
:1048F00051E8001F026821F0100142E80013002B6C
:10490000DAD101688A6852060AD400220F23A0F87F
:104910005E2082650B622021C0F88C10C26646E0E2
:10492000016851E8021F026821F0400142E80213C9
:10493000DBB1016851E8021F026821F0400142E842
:10494000021393B1016851E8021F026821F040018F
:1049500042E802134BB1016851E8021F026821F0DE
:10496000400142E80213002BDAD1D0F8801079B16F
:10497000044645F65940C0F6000088630846FDF736
:1049800001FEB0B1D4F88000816B8847002010BDD3
:104990000021A0F85E1002680F23816513629369FD
:1049A00043F0080393612022C0F88C20C166FFF712
:1049B00031FF002010BD00007047000010B500BF9F
:1049C000016851E8001F026821F0C00142E80013AD
:1049D000BBB3016851E8001F026821F0C00142E842
:1049E000001373B3016851E8001F026821F0C00191
:1049F00042E800132BB3016851E8001F026821F060
:104A0000C00142E80013002BDAD11AE0016851E836
:104A1000021F026821F4000142E80213DBB10168C1
:104A200051E8021F026821F4000142E8021393B129
:104A3000016851E8021F026821F4000142E80213F4
:104A40004BB1016851E8021F026821F4000142E8FD
:104A50000213002BDAD101688A6812060CD40022F6
:104A6000A0F85620436E8267B3F1005F3ED18A6999
:104A700042F010028A6139E0016851E8021F0268C1
:104A800021F0800142E80213DBB1016851E8021F06
:104A9000026821F0800142E8021393B1016851E8F5
:104AA000021F026821F0800142E802134BB1016845
:104AB00051E8021F026821F0800142E80213002B36
:104AC000DAD1C16F71B1044645F67D40C0F60000F1
:104AD00088630846FDF756FD68B1E06F816B884733
:104AE000002010BD0021A0F8561081672021C0F8D9
:104AF0008810FFF761FF002010BD0000FCF752BADC
:104B000070B5026840F62F04D369116896681C409E
:104B1000202C0BD101F0200406F080552D1916D061
:104B2000416F61B3BDE87040084700BF40F60F0514
:104B30002B420CD00125C1F2000506EA050C40F21B
:104B40002015C0F200450D4015EB0C0524D1C46EB4
:104B5000DD0615D5012C13D111F0100510D0102150
:104B600011629168490661D4B0F85C10B0F85E201B
:104B7000B0F85E30002B18BF914240F0518270BDFA
:104B8000DD0215D516F4800512D04FF480111162A4
:104B9000BDE87040FFF77ABDDD0718BF11F48075DE
:104BA00040F020819D0706F0010E00F1278130E1E1
:104BB0001A0606D501F0800206F40006921940F0AC
:104BC000AF825A0640F1028111F0400200F0FE80EF
:104BD000016851E8001F026821F0400142E800131B
:104BE000DBB1016851E8001F026821F0400142E892
:104BF000001393B1016851E8001F026821F04001E1
:104C000042E800134BB1016851E8001F026821F02F
:104C1000400142E80013002BDAD12021C0F88810AF
:104C200000218167BDE8704000F00EBCD0F8801014
:104C30000A685368B0F85C4099B2002900F0B88067
:104C4000A14280F0B580A0F85E301168890600F1BD
:104C5000A38000BF016851E8001F026821F4807141
:104C600042E80013E3B1016851E8001F026821F433
:104C7000807142E800139BB1016851E8001F02688F
:104C800021F4807142E8001353B1016851E8001F1C
:104C9000026821F4807142E80013002BDAD100BFD2
:104CA000016851E8021F026821F0010142E8021385
:104CB000BBB3016851E8021F026821F0010142E81C
:104CC000021373B3016851E8021F026821F0010169
:104CD00042E802132BB3016851E8021F026821F079
:104CE000010142E80213002BDAD11AE0016851E811
:104CF000021F026821F0400142E80213DBB10168A3
:104D000051E8021F026821F0400142E8021393B10A
:104D1000016851E8021F026821F0400142E80213D5
:104D20004BB1016851E8021F026821F0400142E8DE
:104D30000213002BDAD12021C0F88C100021C166AB
:104D4000016851E8001F026821F0100142E80013D9
:104D5000DBB1016851E8001F026821F0100142E850
:104D6000001393B1016851E8001F026821F010019F
:104D700042E800134BB1016851E8001F026821F0BE
:104D8000100142E80013002BDAD1D0F8801004465D
:104D90000846FDF7BFFB204602210167B0F85C1012
:104DA000B0F85E20891A89B2BDE87040FFF768BC90
:104DB0008C427FF4E4AE126892067FF5E0AE0222E8
:104DC0000267BDE87040FFF75BBC00BF1A0240F10C
:104DD000B38111F0804200F0AF81BDE87040FFF771
:104DE00053BC00BF01251562D0F8905045F0010575
:104DF000C0F890509D0706F0010E0AD5BEF1000FD5
:104E000007D002241462D0F8904044F00404C0F8A3
:104E100090405C070AD5BEF1000F07D0042515624B
:104E2000D0F8905045F00205C0F890501D070CD501
:104E300001F0200555EA0C0507D008251562D0F8C9
:104E4000905045F00805C0F890501D050BD511F0A5
:104E5000806508D04FF400651562D0F8905045F099
:104E60002005C0F89050D0F89050002D3FF487AE48
:104E70009B060BD501F0200106F08053C91805D020
:104E8000416F19B10446884722682046D0F8901037
:104E9000926801F0280102F04002891806D1044608
:104EA000FFF72CFE0020C4F8900070BD016851E8A7
:104EB000001F026821F4907142E80013DBB1016821
:104EC00051E8001F026821F4907142E8001393B189
:104ED000016851E8001F026821F4907142E8001354
:104EE0004BB1016851E8001F026821F4907142E85B
:104EF0000013002BDAD14FF6FE71CEF6FF7100BF22
:104F0000026852E8022F03680A4043E80226C6B14D
:104F1000026852E8022F03680A4043E8022686B17D
:104F2000026852E8022F03680A4043E8022646B1AD
:104F3000026852E8022F03680A4043E80226002E66
:104F4000DED1C16E012924D1016851E8001F026839
:104F500021F0100142E80013DBB1016851E8001FA5
:104F6000026821F0100142E8001393B1016851E892
:104F7000001F026821F0100142E800134BB10168E4
:104F800051E8001F026821F0100142E80013002BD5
:104F9000DAD12021C0F88C100021C1660268416777
:104FA0009168490640F1C480016851E8021F026817
:104FB00021F0400142E80213DBB1016851E8021F11
:104FC000026821F0400142E8021393B1016851E800
:104FD000021F026821F0400142E802134BB1016850
:104FE00051E8021F026821F0400142E80213002B41
:104FF000DAD1D0F88010002900F09A8045F6F1024D
:10500000C0F60002044608468A63FDF7BBFA002892
:105010003FF4B5ADD4F88000816BBDE8704008471F
:10502000891A00BF026852E8002F036822F49072C8
:1050300043E80026DEB1026852E8002F036822F43C
:10504000907243E8002696B1026852E8002F036888
:1050500022F4907243E800264EB1026852E8002F15
:10506000036822F4907243E80026002EDAD14FF64E
:10507000FE72CEF6FF7200BF036853E8023F066877
:10508000134046E80235C5B1036853E8023F06689D
:10509000134046E8023585B1036853E8023F0668CD
:1050A000134046E8023545B1036853E8023F0668FD
:1050B000134046E80235002DDED12022C0F88C20B6
:1050C0000022C266426700BF026852E8002F0368F0
:1050D00022F0100243E80026DEB1026852E8002FF9
:1050E000036822F0100243E8002696B1026852E8F5
:1050F000002F036822F0100243E800264EB1026838
:1051000052E8002F036822F0100243E80026002E28
:10511000DAD1022289B20267BDE87040FFF7B0BA67
:10512000816F00293FF42BADBDE87040084700BFF8
:10513000BDE87040FFF7E2BCDA017FF520ADB1F1C8
:10514000FF3FC8BF70BDBDE87040FFF79BBA0000CD
:1051500010B5D0B10446D0F8880028B9002084F8F2
:105160008400204600F026F82420C4F88800206837
:10517000A16A026822F00102026011B1204600F02B
:105180008DFA204601F064FA10B1012010BD00BF75
:105190002168486820F490404860886820F02A0020
:1051A0008860086840F0010220460A60BDE81040AF
:1051B00000F0E8BA70B586B00446006844F20041D9
:1051C000C4F2000100268842CDE90466CDE90266FA
:1051D000019601D006B070BD41F24C00C4F202004D
:1051E000C16841F40031C160C16801F4003100912F
:1051F0000099016841F001010160006801A900F017
:105200000100009000980C2001900220CDE90206D8
:10521000072005904FF090400496FDF74BFB40F2BD
:1052200004353020C2F20005C4F202001A2185E8DC
:1052300043004FF48050802228622846C5E903626B
:10524000C5E90566EE61FDF735FA002818BFFDF7E0
:105250005FF9262002210022C4F88050AC62FDF7DD
:105260002BFF2620FDF716FF06B070BDD0F88C305E
:10527000202B07D100294FF0010318BF002A05D1C8
:105280001846704702231846704700BF80B50023B8
:10529000C366D0F800C048F20003C4F200039C4586
:1052A00003D0DCF804301B0204D401F0C1FB002061
:1052B00080BD00BF036853E800CFD0F800E04CF099
:1052C00080634EE8003CBCF1000FEED0036853E869
:1052D00000CFD0F800E04CF080634EE8003CBCF119
:1052E000000FE2D0036853E800CFD0F800E04CF0A4
:1052F00080634EE8003CBCF1000FD6D0036853E851
:1053000000CFD0F800E04CF080634EE8003CBCF1E8
:10531000000FCFD1C9E70000FBF7AABE704700001D
:10532000D0F88830202B07D100294FF0010318BF97
:10533000002A05D11846704702231846704700BF5F
:1053400001650021A0F85420A0F85620C0F8901064
:105350002121C0F88810426E8168B2F1005F35D11A
:10536000B1F5805F02D10169002961D046F609716B
:10537000C0F60001816700BF016851E8021F0268A2
:1053800041F4000142E80213002B4ED0016851E8BD
:10539000021F026841F4000142E80213002B44D0CE
:1053A000016851E8021F026841F4000142E802135B
:1053B000DBB3016851E8021F026841F4000142E8D2
:1053C0000213002B04BF00207047D5E7B1F5805FC2
:1053D00001D1016991B346F64161C0F600018167D0
:1053E000016851E8001F026841F0800142E80013A3
:1053F000DBB1016851E8001F026841F0800142E81A
:10540000001393B1016851E8001F026841F0800168
:1054100042E800134BB1016851E8001F026841F0F7
:10542000800142E80013002BDAD10020704700BF52
:1054300046F66151C0F600019CE700BF46F6954173
:10544000C0F60001CBE70000FBF7F8BEFEE7000066
:10545000806A01684A6822F003024A6000214184A0
:105460004185012180F83510816B41F0080181638D
:10547000FDF70EBBC169806A002918BFFDF70ABDA0
:1054800001684A6822F001024A6000214185012139
:1054900080F83510FDF7FEBC806AFDF7FDBC00000A
:1054A000C169806A002918BFFDF766BD01684A68B6
:1054B00022F002024A6000214184012180F8351067
:1054C000FDF75ABD806AFDF759BD0000FEE70000F8
:1054D000FEE70000704700007047000070470000C2
:1054E00010B594B000240020CDE90B44CDE9094467
:1054F000CDE90744FDF71CFE4FF48071099140216E
:105500000A91042102200F9155210690CDE90D004A
:10551000CDE91010CDE9120006A8FEF735FC0028F1
:1055200018BFFCF751FB0F2001900320CDE90204C6
:1055300001A80421CDE90444FEF714FA002818BF9D
:10554000FCF742FB14B010BD4EF68850CEF20000BE
:10555000016841F4700101607047000040F264305E
:10556000C2F20000FEF706BF40F2FF7C0268C4F200
:10557000000C604524DD40F60003C4F200039842AD
:1055800027D043F20043C4F20103984221D042F6EF
:105590000043C4F2010398421BD043F2FF33C4F22C
:1055A000010398421FDC604530DCB0F1804F47D0EA
:1055B00040F20043C4F20003984241D044E000BFEF
:1055C000B0F1804F05D040F20043C4F2000398428E
:1055D000E3D14B6822F070021A4343F2FF33C4F266
:1055E00001039842DFDD44F2FF33C4F20103984225
:1055F0001ADC43F20043C4F20103984220D044F283
:105600000003C4F2010398421AD01DE040F60003E3
:10561000C4F20003984213D042F60043C4F20103DF
:1056200098420DD010E000BF44F60003C4F201031D
:10563000984205D044F20043C4F20103984203D1DA
:10564000CB6822F440721A4380B54B6922F0800E79
:105650008A6843EA0E03D1F800C00360C262A0F179
:105660008042A2F596324FEAB222072AC0F828C03B
:10567000BDE8804007D8012303FA02F212F0E50FDB
:105680001CBF09690163012141610169C90708BFA4
:105690007047016921F0010101617047816A0A07C1
:1056A0000CD4CA0715D18A071ED44A0727D4CA06C4
:1056B00030D48A0639D44A0642D457E00268D0F87A
:1056C00038C0536823F4004343EA0C035360CA070D
:1056D000E9D00268D0F82CC0536823F4003343EAC1
:1056E0000C0353608A07E0D50268D0F830C05368D5
:1056F00023F4803343EA0C0353604A07D7D502688A
:10570000D0F834C0536823F4802343EA0C03536079
:10571000CA06CED50268D0F83CC0936823F4805303
:1057200043EA0C0393608A06C5D50268D0F840C0EE
:10573000936823F4005343EA0C0393604A0615D59B
:10574000D0F800C0436CDCF80420B3F5801F22F4CD
:10575000801242EA0302CCF8042007D1DCF80420CE
:10576000836C22F4C0021A43CCF80420090658BF07
:1057700070470168C06C4A6822F4002210434860F8
:1057800070470000B0B582B004460020C4F8900015
:10579000FDF778F9216805460A68120737D56FF0DA
:1057A0007E4C20464FF4001100222B46CDF800C05D
:1057B00001F018FC50B300BF206850E8000F2168CA
:1057C00020F0800041E80002DAB1206850E8000FC4
:1057D000216820F0800041E8000292B1206850E882
:1057E000000F216820F0800041E800024AB12068E3
:1057F00050E8000F216820F0800041E80002002AF4
:10580000DAD10320202188226BE000BF21680868DC
:1058100040075DD56FF07E4C20464FF4800100229A
:105820002B46CDF800C001F0DDFB002850D000BFB2
:10583000206850E8000F216820F4907041E80002D1
:10584000BAB3206850E8000F216820F4907041E856
:10585000000272B3206850E8000F216820F49070B5
:1058600041E800022AB3206850E8000F216820F4C4
:10587000907041E80002002ADAD11AE0206850E86E
:10588000020F216820F0010041E80202DAB120682D
:1058900050E8020F216820F0010041E8020292B1B5
:1058A000206850E8020F216820F0010041E8020260
:1058B0004AB1206850E8020F216820F0010041E859
:1058C0000202002ADAD1032020218C2209E000BF45
:1058D0002020C4F88800C4F88C0000217022002029
:1058E000E166A150002184F8841002B0B0BD000030
:1058F000806A0021A0F85E10FFF700B9806A026894
:10590000D0F88830D0F88CC09168090653D5212B87
:1059100051D10021A0F85610016851E8001F02681B
:1059200021F0C00142E80013BBB3016851E8001F39
:10593000026821F0C00142E8001373B3016851E826
:10594000001F026821F0C00142E800132BB3016878
:1059500051E8001F026821F0C00142E80013002B4B
:10596000DAD11AE0016851E8021F026821F400014F
:1059700042E80213DBB1016851E8021F026821F41A
:10598000000142E8021393B1016851E8021F026866
:1059900021F4000142E802134BB1016851E8021FF3
:1059A000026821F4000142E80213002BDAD1202121
:1059B000C0F8881002689168490640F18480BCF103
:1059C000220F40F080800021A0F85E10016851E8AD
:1059D000001F026821F4907142E80013DBB10168F6
:1059E00051E8001F026821F4907142E8001393B15E
:1059F000016851E8001F026821F4907142E8001329
:105A00004BB1016851E8001F026821F4907142E82F
:105A10000013002BDAD14FF6FE7CCEF6FF7C00BFE0
:105A2000026852E8022F036802EA0C0243E80221EE
:105A3000D9B1016851E8021F026801EA0C0142E88D
:105A4000021393B1016851E8021F026801EA0C01D8
:105A500042E802134BB1016851E8021F026801EAF3
:105A60000C0142E80213002BDAD1C16E012924D1C6
:105A7000016851E8001F026821F0100142E800139C
:105A8000DBB1016851E8001F026821F0100142E813
:105A9000001393B1016851E8001F026821F0100162
:105AA00042E800134BB1016851E8001F026821F081
:105AB000100142E80013002BDAD12021C0F88C102D
:105AC0000021C1664167D0F8901041F01001C0F884
:105AD0009010FFF713B800000168806A0968890612
